:020000040800F2
:1000000000000524F93A0008493800084B38000878
:100010004D3800084F380008513800080000000033
:10002000000000000000000000000000533800083D
:1000300055380008000000005738000859380008FB
:100040004D3B00084D3B00084D3B00084D3B000870
:100050004D3B00084D3B00084D3B00084D3B000860
:100060004D3B00084D3B00084D3B00084D3B000850
:100070004D3B00084D3B00084D3B00084D3B000840
:100080004D3B00084D3B00084D3B00084D3B000830
:100090004D3B00084D3B00084D3B00084D3B000820
:1000A0004D3B00084D3B00084D3B00084D3B000810
:1000B0004D3B00084D3B00084D3B00084D3B000800
:1000C0004D3B00084D3B00084D3B00084D3B0008F0
:1000D0004D3B00084D3B00084D3B00084D3B0008E0
:1000E0004D3B00084D3B0008000000004D3B000860
:1000F0004D3B00084D3B00084D3B00084D3B0008C0
:100100004D3B00084D3B00084D3B00084D3B0008AF
:100110004D3B00084D3B00084D3B00084D3B00089F
:100120004D3B00084D3B00084D3B00084D3B00088F
:100130004D3B00084D3B00084D3B00084D3B00087F
:1001400000000000000000000000000000000000AF
:100150004D3B00084D3B00084D3B00084D3B00085F
:100160004D3B00084D3B00084D3B00084D3B00084F
:100170004D3B00084D3B00084D3B00084D3B00083F
:100180004D3B00084D3B00084D3B00084D3B00082F
:100190004D3B00084D3B00084D3B00084D3B00081F
:1001A0004D3B00084D3B00084D3B0008000000009F
:1001B0004D3B00084D3B00084D3B00084D3B0008FF
:1001C0004D3B00084D3B000800000000000000000F
:1001D00000000000000000004D3B0008000000008F
:1001E000000000000000000000000000000000000F
:1001F00000000000000000004D3B00084D3B0008DF
:100200004D3B00084D3B0008000000004D3B00083E
:100210004D3B00084D3B00084D3B00084D3B00089E
:100220004D3B0008000000004D3B000800000000AE
:100230004D3B00084D3B0008000000004D3B00080E
:100240004D3B00084D3B00084D3B00084D3B00086E
:100250004D3B00084D3B00084D3B00084D3B00085E
:100260004D3B00084D3B00084D3B00084D3B00084E
:100270004D3B00084D3B00084D3B000800000000CE
:100280004D3B00084D3B00084D3B00084D3B00082E
:10029000000000004D3B00084D3B00084D3B0008AE
:1002A0004D3B00084D3B00084D3B00084D3B00080E
:1002B0004D3B00084D3B00084D3B00084D3B0008FE
:0C02C0004D3B00084D3B00084D3B000882
:1003000080F0004002E000BF81F0004142001FBFCA
:100310005FEA410392EA030F7FEA226C7FEA236CD3
:100320006AD04FEA1262D2EB1363C1BFD2184140C8
:1003300048404140B8BF5B42192B88BF704710F05E
:10034000004F40F4000020F07F4018BF404211F001
:10035000004F41F4000121F07F4118BF494292EA69
:10036000030F3FD0A2F1010241FA03FC10EB0C0095
:10037000C3F1200301FA03F100F0004302D5494222
:1003800060EB4000B0F5000F13D3B0F1807F06D3CF
:1003900040084FEA310102F10102FE2A51D2B1F1C7
:1003A000004F40EBC25008BF20F0010040EA0300BC
:1003B0007047490040EB0000013A28BFB0F5000F3C
:1003C000EDD2B0FA80FCACF1080CB2EB0C0200FAF2
:1003D0000CF0AABF00EBC25052421843BCBFD04041
:1003E0001843704792F0000F81F4000106BF80F4BB
:1003F00000000132013BB5E74FEA41037FEA226C7E
:1004000018BF7FEA236C21D092EA030F04D092F048
:10041000000F08BF0846704790EA010F1CBF00207C
:10042000704712F07F4F04D1400028BF40F00040D9
:10043000704712F100723CBF00F50000704700F0F9
:10044000004343F0FE4040F4000070477FEA226220
:1004500016BF08467FEA23630146420206BF5FEAF1
:10046000412390EA010F40F4800070474FF00003F1
:1004700004E000BF10F0004348BF40425FEA000CB8
:1004800008BF704743F0964301464FF000001CE060
:1004900050EA010208BF70474FF000030AE000BFB6
:1004A00050EA010208BF704711F0004302D54042F4
:1004B00061EB41015FEA010C02BF84460146002066
:1004C00043F0B64308BFA3F18053A3F50003BCFA81
:1004D0008CF2083AA3EBC25310DB01FA02FC63442E
:1004E00000FA02FCC2F12002BCF1004F20FA02F235
:1004F00043EB020008BF20F00100704702F1200228
:1005000001FA02FCC2F1200250EA4C0021FA02F288
:1005100043EB020008BF20EADC7070474FF0FF0C8D
:100520001CEAD0521EBF1CEAD15392EA0C0F93EA88
:100530000C0F6FD01A4480EA010C400218BF5FEA2A
:1005400041211ED04FF0006343EA501043EA51119D
:10055000A0FB01310CF00040B1F5000F3EBF490097
:1005600041EAD3715B0040EA010062F17F02FD2A9B
:100570001DD8B3F1004F40EBC25008BF20F001007E
:10058000704790F0000F0CF0004C08BF49024CEA95
:10059000502040EA51207F3AC2BFD2F1FF0340EA27
:1005A000C250704740F400004FF00003013A5DDC98
:1005B00012F1190FDCBF00F000407047C2F10002D9
:1005C000410021FA02F1C2F1200200FA02FC5FEAC6
:1005D000310040F1000053EA4C0308BF20EADC7010
:1005E000704792F0000F00F0004C02BF400010F482
:1005F000000F013AF9D040EA0C0093F0000F01F02F
:10060000004C02BF490011F4000F013BF9D041EA50
:100610000C018FE70CEAD15392EA0C0F18BF93EA52
:100620000C0F0AD030F0004C18BF31F0004CD8D17C
:1006300080EA010000F00040704790F0000F17BF03
:1006400090F0004F084691F0000F91F0004F14D049
:1006500092EA0C0F01D142020FD193EA0C0F03D1A1
:100660004B0218BF084608D180EA010000F00040A4
:1006700040F0FE4040F40000704740F0FE4040F47F
:10068000400070474FF0FF0C1CEAD0521EBF1CEA1E
:10069000D15392EA0C0F93EA0C0F69D0A2EB03023C
:1006A00080EA010C49024FEA402037D04FF08053D6
:1006B00043EA111143EA10130CF000408B4238BF9B
:1006C0005B0042F17D024FF4000C8B4224BF5B1AA9
:1006D00040EA0C00B3EB510F24BFA3EB510340EAF7
:1006E0005C00B3EB910F24BFA3EB910340EA9C00A5
:1006F000B3EBD10F24BFA3EBD10340EADC001B0115
:1007000018BF5FEA1C1CE0D1FD2A3FF650AF8B42B8
:1007100040EBC25008BF20F0010070470CF0004CC5
:100720004CEA50207F32C2BFD2F1FF0340EAC250F0
:10073000704740F400004FF00003013A37E792F0B1
:10074000000F00F0004C02BF400010F4000F013A0F
:10075000F9D040EA0C0093F0000F01F0004C02BF0A
:10076000490011F4000F013BF9D041EA0C0195E773
:100770000CEAD15392EA0C0F08D142027FF47DAF0C
:1007800093EA0C0F7FF470AF084676E793EA0C0FFC
:1007900004D14B023FF44CAF08466EE730F0004CFA
:1007A00018BF31F0004CCAD130F000427FF45CAF8A
:1007B00031F000437FF43CAF5FE700BF42000ED250
:1007C000B2F1FE4F0BD34FF09E03B3EB126209D48C
:1007D0004FEA002343F0004323FA02F070474FF042
:1007E0000000704712F1610F01D1420202D14FF0B7
:1007F000FF3070474FF00000704700BF53B94AB94F
:10080000002908BF00281CBF4FF0FF314FF0FF3018
:1008100000F00CB8ADF1080C6DE904CE07F008F952
:10082000DDF804E0DDE9022304B07047704700BF43
:1008300001F0FF01102A2BDB10F0070F08D010F891
:10084000013B013A8B422DD010F0070F42B3F6D195
:10085000F0B441EA012141EA014122F007047FF0AE
:1008600000070023F0E80256083C85EA010586EA05
:10087000010685FA47F5A3FA87F586FA47F6A5FA41
:1008800087F68EB9EED1F0BC01F0FF0102F007024D
:1008900032B110F8013B013A83EA010313B1F8D1F8
:1008A0000020704701387047002D06BF35460338D9
:1008B000073815F0010F07D1013015F4807F02BF12
:1008C000013015F4C03F0130F0BC0138704700BF63
:1008D000844641EA000313F003036DD1403A41D34B
:1008E00051F8043B40F8043B51F8043B40F8043B0A
:1008F00051F8043B40F8043B51F8043B40F8043BFA
:1009000051F8043B40F8043B51F8043B40F8043BE9
:1009100051F8043B40F8043B51F8043B40F8043BD9
:1009200051F8043B40F8043B51F8043B40F8043BC9
:1009300051F8043B40F8043B51F8043B40F8043BB9
:1009400051F8043B40F8043B51F8043B40F8043BA9
:1009500051F8043B40F8043B51F8043B40F8043B99
:10096000403ABDD2303211D351F8043B40F8043B39
:1009700051F8043B40F8043B51F8043B40F8043B79
:1009800051F8043B40F8043B103AEDD20C3205D349
:1009900051F8043B40F8043B043AF9D2043208D041
:1009A000D2071CBF11F8013B00F8013B01D30B88B3
:1009B00003806046704700BF082A13D38B078DD091
:1009C00010F003038AD0C3F10403D21ADB071CBF63
:1009D00011F8013B00F8013B80D331F8023B20F8CD
:1009E000023B7BE7043AD9D3013A11F8013B00F806
:1009F000013BF9D20B7803704B7843708B7883708E
:100A00006046704700000000000000000000000089
:100A100000000000000000000000000000000000D6
:100A200000000000000000000000000000000000C6
:100A300000000000000000000000000000000000B6
:100A400090F800F06DE9024520F007016FF0000C0E
:100A500010F0070491F820F040F049804FF00004B6
:100A60006FF00700D1E9002391F840F000F1080091
:100A700082FA4CF2A4FA8CF283FA4CF3A2FA8CF3C9
:100A80004BBBD1E9022382FA4CF200F10800A4FA30
:100A90008CF283FA4CF3A2FA8CF3E3B9D1E9042384
:100AA00082FA4CF200F10800A4FA8CF283FA4CF3BB
:100AB000A2FA8CF37BB9D1E9062301F1200182FA75
:100AC0004CF200F10800A4FA8CF283FA4CF3A2FA7B
:100AD0008CF3002BC6D0002A04BF04301A4612BA89
:100AE000B2FA82F2FDE8024500EBD2007047D1E98C
:100AF000002304F00305C4F100004FEAC50514F01B
:100B0000040F91F840F00CFA05F562EA05021CBFEB
:100B100063EA050362464FF00004A9E781F0004153
:100B200002E000BF83F0004330B54FEA41044FEAD2
:100B3000430594EA050F08BF90EA020F1FBF54EA6D
:100B4000000C55EA020C7FEA645C7FEA655C00F009
:100B5000E2804FEA5454D4EB5555B8BF6D420CDDDA
:100B60002C4480EA020281EA030382EA000083EA5D
:100B7000010180EA020281EA0303362D88BF30BDFD
:100B800011F0004F4FEA01314FF4801C4CEA113153
:100B900002D0404261EB410113F0004F4FEA0333B2
:100BA0004CEA133302D0524263EB430394EA050F3D
:100BB00000F0A780A4F10104D5F1200E0DDB02FAAC
:100BC0000EFC22FA05F2801841F1000103FA0EF240
:100BD000801843FA05F359410EE0A5F120050EF106
:100BE000200E012A03FA0EFC28BF4CF0020C43FA37
:100BF00005F3C01851EBE37101F0004507D54FF044
:100C0000000EDCF1000C7EEB00006EEB0101B1F593
:100C1000801F1BD3B1F5001F0CD349085FEA3000D9
:100C20004FEA3C0C04F101044FEA445212F5800FE4
:100C300080F09A80BCF1004F08BF5FEA500C50F181
:100C4000000041EB045141EA050130BD5FEA4C0C64
:100C5000404141EB0101013C28BFB1F5801FE9D2C1
:100C600091F0000F04BF01460020B1FA81F308BFE4
:100C70002033A3F10B03B3F120020CDA0C3208DDB0
:100C800002F1140CC2F10C0201FA0CF021FA02F18B
:100C90000CE002F11402D8BFC2F1200C01FA02F1FB
:100CA00020FA0CFCDCBF41EA0C019040E41AA2BF20
:100CB00001EB0451294330BD6FEA04041F3C1CDAE8
:100CC0000C340EDC04F11404C4F1200220FA04F008
:100CD00001FA02F340EA030021FA04F345EA0301B2
:100CE00030BDC4F10C04C4F1200220FA02F001FA74
:100CF00004F340EA0300294630BD21FA04F02946F6
:100D000030BD94F0000F83F4801306BF81F480118E
:100D10000134013D4EE77FEA645C18BF7FEA655C01
:100D200029D094EA050F08BF90EA020F05D054EAD3
:100D3000000C04BF1946104630BD91EA030F1EBFD8
:100D40000021002030BD5FEA545C05D140004941DC
:100D500028BF41F0004130BD14F580043CBF01F5CF
:100D6000801130BD01F0004545F0FE4141F47001B5
:100D70004FF0000030BD7FEA645C1ABF1946104690
:100D80007FEA655C1CBF0B46024650EA013406BF91
:100D900052EA033591EA030F41F4002130BD00BF50
:100DA00090F0000F04BF0021704730B54FF480640D
:100DB00004F132044FF000054FF0000150E700BF8E
:100DC00090F0000F04BF0021704730B54FF48064ED
:100DD00004F1320410F0004548BF40424FF00001DA
:100DE0003EE700BF42004FEAE2014FEA31014FEA1D
:100DF00002701FBF12F07F4393F07F4F81F060516C
:100E0000704732F07F4208BF704793F07F4F04BFB6
:100E100041F40021704730B54FF4607401F0004593
:100E200021F000411CE700BF50EA010208BF7047F3
:100E300030B54FF000050AE050EA010208BF7047E4
:100E400030B511F0004502D5404261EB41014FF44D
:100E5000806404F132045FEA915C3FF4D8AE4FF055
:100E600003025FEADC0C18BF03325FEADC0C18BF38
:100E7000033202EBDC02C2F1200300FA03FC20FA89
:100E800002F001FA03FE40EA0E0021FA02F11444D6
:100E9000BDE600BF70B54FF0FF0C4CF4E06C1CEAEF
:100EA00011541DBF1CEA135594EA0C0F95EA0C0F60
:100EB00000F0DEF82C4481EA030621EA4C5123EAD3
:100EC0004C5350EA013518BF52EA033541F4801102
:100ED00043F4801338D0A0FB02CE4FF00005E1FBB5
:100EE00002E506F00042E0FB03E54FF00006E1FBFF
:100EF00003569CF0000F18BF4EF0010EA4F1FF0442
:100F0000B6F5007F64F5407404D25FEA4E0E6D4181
:100F100046EB060642EAC62141EA55514FEAC52092
:100F200040EA5E504FEACE2EB4F1FD0C88BFBCF50E
:100F3000E06F1ED8BEF1004F08BF5FEA500E50F1BF
:100F4000000041EB045170BD06F0004646EA010185
:100F500040EA020081EA0301B4EB5C04C2BFD4EBB7
:100F60000C0541EA045170BD41F480114FF0000EB0
:100F7000013C00F3AB8014F1360FDEBF002001F01E
:100F8000004170BDC4F10004203C35DA0C341BDC98
:100F900004F11404C4F1200500FA05F320FA04F06A
:100FA00001FA05F240EA020001F0004221F000419E
:100FB00010EBD37021FA04F642EB06015EEA430E11
:100FC00008BF20EAD37070BDC4F10C04C4F1200541
:100FD00000FA04F320FA05F001FA04F240EA0200F4
:100FE00001F0004110EBD37041F100015EEA430EC5
:100FF00008BF20EAD37070BDC4F1200500FA05F2E5
:101000004EEA020E20FA04F301FA05F243EA020363
:1010100021FA04F001F0004121FA04F220EA020072
:1010200000EBD3705EEA430E08BF20EAD37070BDB8
:1010300094F0000F0FD101F00046400041EB010198
:1010400011F4801F08BF013CF7D041EA060195F07A
:10105000000F18BF704703F00046520043EB030334
:1010600013F4801F08BF013DF7D043EA0603704721
:1010700094EA0C0F0CEA135518BF95EA0C0F0CD02C
:1010800050EA410618BF52EA4306D1D181EA030172
:1010900001F000414FF0000070BD50EA410606BF6C
:1010A0001046194652EA430619D094EA0C0F02D1B1
:1010B00050EA013613D195EA0C0F05D152EA0336F6
:1010C0001CBF104619460AD181EA030101F0004114
:1010D00041F0FE4141F470014FF0000070BD41F05D
:1010E000FE4141F4780170BD70B54FF0FF0C4CF437
:1010F000E06C1CEA11541DBF1CEA135594EA0C0F56
:1011000095EA0C0F00F0A7F8A4EB050481EA030EA2
:1011100052EA03354FEA013100F088804FEA033389
:101120004FF0805545EA131343EA12634FEA022257
:1011300045EA111545EA10654FEA00260EF0004118
:101140009D4208BF964244F1FD0404F5407402D26A
:101150005B084FEA3202B61A65EB03055B084FEAFB
:1011600032024FF480104FF4002CB6EB020E75EBF8
:10117000030E22BFB61A754640EA0C005B084FEA20
:101180003202B6EB020E75EB030E22BFB61A75469D
:1011900040EA5C005B084FEA3202B6EB020E75EBE8
:1011A000030E22BFB61A754640EA9C005B084FEA60
:1011B0003202B6EB020E75EB030E22BFB61A75466D
:1011C00040EADC0055EA060E18D04FEA051545EA5C
:1011D00016754FEA06164FEAC30343EA52734FEA05
:1011E000C2025FEA1C1CC0D111F4801F0BD141EA7E
:1011F00000014FF000004FF0004CB6E711F4801FE3
:1012000004BF01430020B4F1FD0C88BFBCF5E06FC2
:101210003FF6AFAEB5EB030C04BFB6EB020C5FEAD2
:10122000500C50F1000041EB045170BD0EF0004E27
:101230004EEA113114EB5C04C2BFD4EB0C0541EA59
:10124000045170BD41F480114FF0000E013C90E656
:1012500045EA060E8DE60CEA135594EA0C0F08BF1A
:1012600095EA0C0F3FF43BAF94EA0C0F0AD150EA19
:1012700001347FF434AF95EA0C0F7FF425AF1046AC
:1012800019462CE795EA0C0F06D152EA03353FF4D4
:10129000FDAE1046194622E750EA410618BF52EA51
:1012A00043067FF4C5AE50EA41047FF40DAF52EA25
:1012B00043057FF4EBAE12E74FF0FF3C06E000BFC2
:1012C0004FF0010C02E000BF4FF0010C4DF804CDCF
:1012D0004FEA410C7FEA6C5C4FEA430C18BF7FEA8F
:1012E0006C5C1BD001B050EA410C0CBF52EA430CBD
:1012F00091EA030F02BF90EA020F0020704710F13D
:10130000000F91EA030F58BF994208BF90422CBFCB
:10131000D8176FEAE37040F0010070474FEA410CC4
:101320007FEA6C5C02D150EA013C07D14FEA430CE2
:101330007FEA6C5CD6D152EA033CD3D05DF8040B53
:10134000704700BF8446104662468C461946634685
:1013500000E000BF01B5FFF7B7FF002848BF10F15C
:10136000000F01BD4DF808EDFFF7F4FF0CBF0120A1
:1013700000205DF808FB00BF4DF808EDFFF7EAFF1D
:1013800034BF012000205DF808FB00BF4DF808EDD8
:10139000FFF7E0FF94BF012000205DF808FB00BFCD
:1013A0004DF808EDFFF7CEFF94BF012000205DF857
:1013B00008FB00BF4DF808EDFFF7C4FF34BF012064
:1013C00000205DF808FB00BF4FEA410C7FEA6C5C2F
:1013D00002D150EA013C0AD14FEA430C7FEA6C5C2F
:1013E00002D152EA033C02D14FF0000070474FF0A7
:1013F000010070474FEA410212F5001215D211D5D3
:101400006FF47873B3EB625212D94FEAC12343F001
:10141000004343EA505311F0004F23FA02F018BF83
:10142000404270474FF00000704750EA013005D14C
:1014300011F0004008BF6FF0004070474FF000000F
:10144000704700BF10B5054C237833B9044B13B176
:101450000448AFF300800123237010BDE00700248F
:101460000000000010E8000808B5034B1BB1034959
:101470000348AFF3008008BD00000000E40700242B
:1014800010E800080020704708B54FF6FF738AB2D5
:101490000146024806F03CF908BD00BF800E00245A
:1014A0007047704710B502F0B5FB0346034C044A81
:1014B0000C21204606F0DCFF204610BDFC0700246E
:1014C00028E800080020704700207047002314E03F
:1014D00003EB430C03EB8C0C0CF11800084A10448E
:1014E0000021C0F80610C0F80A10C0F80D106244C0
:1014F000517782F829100133DBB2042BE8D9704709
:101500000C0C0024014B83F8790070470C0C00246C
:10151000014B83F87D0070470C0C002408B5084B84
:1015200093F87A3023B9064B012283F87B2008BD5B
:10153000FFF7B6FF024B012283F87C20F7E700BFDC
:101540000C0C002408B5084B93F87A3023B9064BED
:10155000002283F87B2008BDFFF7A3FF024B002287
:1015600083F87C20F7E700BF0C0C00240FB400B513
:1015700083B0104B93F8793023B903B05DF804EBD6
:1015800004B0704705AB0193FFF7C8FF019B049AB5
:101590004FF48061084806F0F7FF0146B0F5806F10
:1015A00001D94FF480610448FFF76EFFFFF7CAFFCF
:1015B000E3E700BF0C0C00240C0800242DE9F047E1
:1015C0008CB004460E46904699460846FFF738FA16
:1015D000074600250A95ADF82C500895ADF8245023
:1015E000052C07D9BB4B1B687BB140F23E22BA49A0
:1015F000BA489847BA4B93F879301BB1B84B1B786F
:10160000A34213D20CB0BDE8F08740F23E2304930E
:10161000B14B0393B14B0293B24B01932846009513
:101620002B462A46B049FFF7C9FFFEE7304600F0D7
:101630002DFAA042E6D3AD49304607F00BFA002858
:10164000E0D016AB0793FFF769FFA54B93F87D3009
:10165000002B5AD100250121204600F073FA002802
:1016600064D10221204600F06DFA002868D11C21C7
:10167000204600F067FA002840F082804246202190
:10168000204600F0A0FA38B94A464021204600F032
:101690009AFA002800F0CB80954A964929442846BA
:1016A00000F0DAFA054442462021204600F08BFA89
:1016B000002840F0C580149A8021204600F078FA76
:1016C000002840F0E2804A464021204600F07BFAA4
:1016D000002840F0F780884A86492944284600F0CF
:1016E000BBFA0544079B159AC5F5806181482844DB
:1016F00006F04AFF0544B5F5806F00F20F8100281F
:1017000080F20E814FF480650AE1DFF8E8A17B4AA0
:101710005146002000F0A0FA0546794B53F82420EA
:101720000AEB000100F098FA054494E7754B53F872
:10173000242070492944284600F08EFA054490E799
:1017400032466C492944284600F086FA0544052FA4
:1017500007D96D4A67492944284600F07DFA0544B7
:1017600085E7C7F1050220210DEB010006F044FFDB
:1017700008AA60492944284600F06EFA0544E8E7C3
:10178000624A5C492944284600F066FA054404216F
:10179000204600F0D7F990B90821204600F0D2F990
:1017A00020BB1021204600F0CDF9002835D1584A41
:1017B00050492944284600F04FFA05445EE7FFF7F8
:1017C00071FE02464B492944284600F045FA05447B
:1017D0001821204600F0B6F90028DDD04A4A4549D4
:1017E0002944284600F038FA0544D5E7FFF76AFE99
:1017F000024640492944284600F02EFA05441021AB
:10180000204600F09FF90028CBD03F4A39492944AF
:10181000284600F021FA0544C3E7FFF755FE0246CB
:1018200034492944284600F017FA0544BFE7149AC2
:101830008021204600F0BCF900283FF453AF2BE78D
:1018400042462C492944284600F006FA05444A46F7
:101850004021204600F0B7F938B12E4A25492944E5
:10186000284600F0F9F9054425E7149A802120461E
:1018700000F09EF900283FF41EAF234A1D49294479
:10188000284600F0E9F9054415E7149B224A052192
:101890000AA806F0EDFD0AAA16492944284600F0D8
:1018A000DBF905444A464021204600F08CF9002827
:1018B0003FF409AF144A0F492944284600F0CCF9F7
:1018C000054400E74A460B492944284600F0C4F97C
:1018D000054400E708080024F4E8000834E800089C
:1018E0000C0C002450E800082CE800080D0C002423
:1018F00084E800080C08002490E8000874E8000858
:1019000084E900089CE9000878E800087CE8000801
:1019100080E8000888E800088CE800084FF480653B
:101920006B1DB3F5806F01D940F2FB35124B1B7B69
:1019300033B1124800234355114907F08BF880B1A9
:101940000D4B93F87D307BB90C4C0E4A611928463B
:1019500000F082F929182046FFF796FDFFF7F2FD07
:1019600050E6FFF7EFFD4DE6074A044929442846B3
:1019700000F072F90544E7E70C0C00240C08002481
:10198000180C00249CE8000894E800080B4B93F81E
:10199000783003B9704700B585B00120FFF7B2FD7C
:1019A000074B0293074B019300220092134606490E
:1019B0000320FFF703FE05B05DF804FB0C0C0024C8
:1019C000A0E80008A8E800082CE8000830B587B0B7
:1019D00004460D46052807D90F4B1B6853B14FF439
:1019E000A0720E490E48984718340E4B43F8245005
:1019F00007B030BD4FF4A0730493084B0393084B1A
:101A00000293094B019300200090034602460749C8
:101A1000FFF7D4FDFEE700BF080800242CE900080A
:101A200034E800080C0C002450E800082CE80008FA
:101A300010B586B00446052807D90E4B1B6843B184
:101A40004FF4AD720C490D4898470D4B1C7006B011
:101A500010BD4FF4AD730493074B0393074B0293F0
:101A6000084B019300200090034602460649FFF709
:101A7000A5FDFEE70808002418E9000834E800087E
:101A80000C0C002450E800082CE8000870B586B063
:101A9000064640B1254B93F87830002B43D0FFF732
:101AA0003DFD00241AE0224B1B682BB14FF4F0726D
:101AB000204921489847EDE74FF4F07304931D4BFC
:101AC00003931D4B02931D4B019300900346024666
:101AD0001B49FFF773FDFEE70134E4B2042C1CD868
:101AE00004EB440204EB8202104B134493F82930B8
:101AF000002BF1D0114618310C4B19440A22063143
:101B0000304606F0CBFD0028E6D104EB440304EB9D
:101B10008305064B2B445C7F00E00524FFF712FD94
:101B2000204606B070BD0524FAE700BF0C0C002467
:101B30000808002400E90008D0E8000850E8000880
:101B40002CE8000830B587B004460D46052807D9B3
:101B5000114B1B686BB140F2DF22104910489847C7
:101B60001834104B53F824302B4213D0012007B007
:101B700030BD40F2DF230493084B0393084B0293DC
:101B8000094B019300200090034602460749FFF7E6
:101B900015FDFEE70020EAE708080024E4E8000855
:101BA00034E800080C0C002450E800082CE8000879
:101BB0000AB90020704708B5FFF7C4FF08B101203B
:101BC00008BD0020FCE72AB108B5FFF7BBFF18B13C
:101BD000012008BD002070470020FAE708B50B4B34
:101BE00083F87A0058B193F87C301BB9074A92F811
:101BF0007B202AB91BB1054B93F87B301BB108BD84
:101C0000FFF74EFCFBE7FFF74CFCF8E70C0C002459
:101C100038B5104B93F8783013B10024204638BD06
:101C2000FFF730FC04460028F8D10120FFF7D6FF6B
:101C3000084D002385F87B3085F87C300120FFF7C4
:101C400067FC0520FFF7F4FEFFF740FC012385F851
:101C50007830E3E70C0C002470B586B005461646D4
:101C60000C4681B13EB33046017800293BD005F1E6
:101C7000010CB5F5806F36D20130234603F8011B05
:101C80001C466546F0E7194B1B6823B12C22184906
:101C900018489847E6E72C230493154B0393154BFC
:101CA0000293154B0193002000900346024613490E
:101CB000FFF784FCFEE70D4B1B6823B12D220C4976
:101CC0000F489847CFE72D230493094B03930C4B00
:101CD0000293094B019300200090034602460749F6
:101CE000FFF76CFCFEE7801B06B070BD08080024FF
:101CF000BCE90008B4E9000850E800082CE8000836
:101D0000B8E9000872B6704762B670474FF41663C0
:101D10001A46013B002AFBD17047F0B595B00D463D
:101D200014461E4647693B681B681A6802F0405219
:101D3000B2F1405F10D050220021684606F05CFCF2
:101D4000237802936378013B072B0FD8DFE803F079
:101D50000C190E1C0E0E0E1F79681A9A2944304673
:101D6000FEF7B6FD002046E0012303930695E378D5
:101D7000013B072B11D8DFE803F00D1D10211010D7
:101D8000102502230393F1E703230393EEE70423D3
:101D90000393EBE74FF4807307934FF400530893DA
:101DA000A279013A072A14D8DFE802F01027132B92
:101DB0001313132F4FF400730793EEE74FF44073A0
:101DC0000793EAE74FF480630793E6E74FF08073E9
:101DD0000E931A9B0F936379119341F288326946EF
:101DE000386802F03DFAA0B941F2883231463868CD
:101DF00002F0E4FA78B915B0F0BD4FF000730E931D
:101E0000E7E74FF040730E93E3E74FF080630E93E4
:101E1000DFE70320EFE70320EDE7000043688BB125
:101E2000012B0DD10E4B43620E4B83620E4BC362EE
:101E30000E4B03630E4B43630E4BC3630E4B0364A5
:101E4000002070470D4B4362074BC362074B03638F
:101E50000B4B4363074BC363074B0364F0E700BFBF
:101E6000CD2000081B1D0008051D0008091D0008E5
:101E7000100000240D1D0008C0270900CD1E000819
:101E8000000000240CB430B583B00A4606AB53F80A
:101E9000045B019301460A48FFF768FB094C019B6C
:101EA0002A464FF48071204606F06EFB2146064814
:101EB000FFF75CFB03B0BDE8304002B0704700BFE5
:101EC000C8E900088C0C0024D8E900082DE9F04F7F
:101ED00083B00D461F460C9ED0F814A090460AB160
:101EE000002945D00EB1002F4CD018EB060966D062
:101EF000484605F001FF0446484605F0FDFE8346CE
:101F0000002818BF002C47D04A46FF21204606F083
:101F100073FB424629462046FEF7DAFC00224FF4C6
:101F20008051284802F014F8DAF800004FF47A7370
:101F300000931FFA89F35A46214604F05DFD0546D9
:101F4000002834D101224FF480511E4802F000F8DD
:101F500032460BEB08013846FEF7BAFC204605F086
:101F6000D3FE584605F0D0FE284603B0BDE8F08FFA
:101F7000154B0093154B164A4FF48F711548FFF718
:101F800081FFFEE7104B0093134B114A40F22111E1
:101F90001048FFF777FFFEE7104B019300220092F5
:101FA00013460F490120FFF709FB0225DCE7204615
:101FB00005F0AAFE584605F0A7FE0425D4E7022541
:101FC000D2E700BF00040258C4EA0008E0E90008B4
:101FD000ECE900080CEA000870EA000884EA00084E
:101FE0007CEA00082DE9F04194B006460D461446FF
:101FF0001F4650220021684606F0FEFAD6F81480EB
:102000002B780293012303939C422DD9032C57D99B
:102010006A78AB781B0243EA0243EA7813430693DB
:102020004FF4005308934FF4807307930426002D58
:1020300018BF002F26D0A64202D0A61BF60011968C
:102040004FF080730E931A9B0F9341F288326946CA
:10205000D8F8000002F004F9034698BB1A9A2AB98E
:10206000184614B0BDE8F0810126E0E741F288325D
:102070003946D8F8000002F0A1F903460028EFD055
:102080000323EDE7A64202D04FF080730E93A31B0B
:102090000F9341F288326946D8F8000002F0E0F868
:1020A000034688B9A642DBD041F28832A919D8F894
:1020B000000002F036F903460028D1D00223CFE712
:1020C0000323CDE70323CBE70323C9E72DE9F0433F
:1020D00083B004460E461F46DDF8288045699146C8
:1020E00002B129B3B8F1000F00D057B32B681B68B9
:1020F0001B6803F04053B3F1405F2BD0A86818B1C0
:102100000022A98901F024FFB9F1000F18BFB8F12E
:10211000000F2AD1B9F1000F30D1A868002835D0BE
:102120000122A98901F014FF002003B0BDE8F0836B
:10213000174B0093174B184A70211848FFF7A2FE5F
:10214000FEE7134B0093164B134A73211348FFF716
:1021500099FEFEE7134B01930022009213461249A9
:102160000120FFF72BFA0220DFE7CDF800803B4685
:102170004A4631462046FFF735FFCEE7002300935D
:102180004A4631462046FFF72DFFC6E70020CCE740
:10219000D4EA0008E0E90008ECE900080CEA0008CD
:1021A00070EA000894EA00087CEA000810B596B0CE
:1021B00004465022002102A806F01EFA00230093D4
:1021C000019394F84830049394F84930013B072B6D
:1021D00007D8DFE803F004110614060606170123EA
:1021E000059394F84B30013B072B11D8DFE803F03F
:1021F0000D1E10221010102602230593F1E7032371
:102200000593EEE704230593EBE74FF480730993FE
:102210004FF400530A9394F84E30013B072B14D827
:10222000DFE803F01028132C131313304FF400735E
:102230000993EDE74FF440730993E9E74FF48063A6
:102240000993E5E74FF08073109394F84D301393A2
:10225000646B41F2883202A9206802F001F8A8B943
:102260000023009301936946206802F00BF978B9C6
:1022700016B010BD4FF000731093E6E74FF04073B7
:102280001093E2E74FF080631093DEE70320EFE75F
:102290000320EDE7D0F810C0BCF1807F14D880F89F
:1022A0004810182180F84A1080F8492080F84B30F7
:1022B000002380F84C309DF8003080F84D309DF8B8
:1022C000043080F84E307047032906D0013180F881
:1022D0004810202180F84A10E6E7103180F84810B5
:1022E000F7E7000030B585B0044600B320309F23E7
:1022F0008DF80C30656A0323009302AB012203A919
:10230000A8470546E8B99DF8083023739DF80920D1
:1023100062739DF80A10A173019100920E4A40F277
:10232000C1310E48FFF7AEFD284605B030BD0C4B5D
:1023300000930C4B0C4A40F2B9310848FFF7A2FD5C
:10234000FEE70A4B0193002200921346084903203E
:10235000FFF734F9E8E700BF48EB0008ECEA0008B3
:1023600018EF0008E4EA0008ECE90008A8EB000810
:102370007CEA000808B10020704700B583B0054B27
:102380000093054B054A4FF4EA710548FFF77AFDC3
:10239000FEE700BFC8EE0008E4EA0008ECE9000828
:1023A000ECEA00080220704710B50446FFF7FAFF78
:1023B000A04203D9024800EBC41010BD0020FCE786
:1023C0002000002410B582B048B186464B1EDBB217
:1023D000042918BF012B0CD80124002318E0484B16
:1023E0000093484B484A40F21B114848FFF74AFD0A
:1023F000FEE7434B0093464B434A4FF48E714348EC
:10240000FFF740FDFEE7434A02EB8302D478013335
:102410000E2B17D83F4A12F823C09EF80C20944583
:10242000F5D13C4A02EB830250789EF80D20904291
:10243000EDD1384A02EB830290789EF80E2090424C
:10244000E5D1E0E7022910D0042933D0012902D0D8
:10245000002002B010BD0122019200230093134618
:1024600003217046FFF716FFF2E714F0040F0DD1B9
:1024700014F0020F14D002230193082300930123C8
:102480001A463B217046FFF705FFE1E7022301935F
:10249000042200920122BB217046FFF7FBFED7E722
:1024A0000122019200230093134603217046FFF797
:1024B000F1FECDE714F0100F0DD114F0080F14D079
:1024C000042301930823009301231A466B217046CD
:1024D000FFF7E0FEBCE704230193062200920122ED
:1024E000EB217046FFF7D6FEB2E7012201920023EE
:1024F0000093134603217046FFF7CCFEA8E700BF08
:10250000ACEE0008E4EA0008ECE90008ECEA000898
:10251000D4EB000838EF000810B584B005228DF820
:102520000F2050B10B4691B1446A012200920DF187
:102530000F012030A04704B010BD0A4B00930A4B96
:102540000A4A40F224410A48FFF79CFCFEE7054B8B
:102550000093084B054A40F225410548FFF792FCDD
:10256000FEE700BF98EE0008E4EA0008ECE9000886
:10257000ECEA00081CEC000870B584B00546046C59
:1025800070B9184B0093184B184A40F22F41184865
:10259000FFF778FCFEE7EB6B84B103B19847013C91
:1025A0000DF10F012846FFF7B7FF06460028F2D1CC
:1025B0009DF80F3013F0010FEDD100E0042626B98D
:1025C0009DF80F3013F0010F08D00A4B0193002241
:1025D0000092134608490320FEF7F0FF304604B08E
:1025E00070BD00BF04EF0008E4EA0008ECE9000851
:1025F000ECEA000824EC00087CEA000870B584B01E
:10260000D0B1044600F1200666238DF80C30456AEF
:1026100000230093012203A93046A8470546A8B12C
:102620001A4B019300220092134619490320FEF72A
:10263000C5FF284604B070BD164B0093164B174AD1
:1026400040F297311648FFF71DFCFEE72046FFF7E2
:1026500093FF99238DF80D30656A002300930122C2
:102660000DF10D013046A847054610B1002DE0D010
:10267000D6E72046FFF780FF05460028D0D1094A5B
:1026800040F2AA310648FFF7FDFBEFE768EC0008CF
:102690007CEA000810EF0008E4EA0008ECE9000812
:1026A000ECEA00084CEC000830B585B090B10C465F
:1026B0000546C9B106238DF80F300023009301228F
:1026C0000DF10F0105F12000D5F824C0E04778B1E5
:1026D00005B030BD1A4B00931A4B1B4A40F2D6315D
:1026E0001A48FFF7CFFBFEE704238DF80F30E4E72D
:1026F0000DF10E012846FFF70FFF0028E8D17CB14D
:102700009DF80E3013F0020FE2D1114B019300221D
:10271000009213460F490320FEF750FF0220D7E72F
:102720009DF80E3013F0020FD2D00B4B0193002214
:102730000092134607490320FEF740FF0220C7E737
:10274000D8EE0008E4EA0008ECE90008ECEA00082A
:1027500014ED00087CEA000838ED000870B586B07A
:1027600010B30C4605460121FFF79EFF0646C0B98F
:1027700024B3B7238DF817306E6A0023009301222B
:102780000DF1170105F12000B0470646E0B985F8C4
:102790003940BCB1144B154A40F211411448FFF7BF
:1027A00071FB304606B070BD124B0093124B134ABA
:1027B00040F2FF310E48FFF765FBFEE7E9238DF895
:1027C0001730D9E70E4BE6E75CB1074B02930D4B90
:1027D00001930022009213460B490320FEF7EEFE00
:1027E000DFE7074BF2E700BF5CED00086CED000887
:1027F000ECEA0008ECEE0008E4EA0008ECE9000866
:1028000064ED000890ED00087CEA0008F0B585B0A2
:1028100058B30446164600F1200700292FD0502354
:102820008DF80C30456A00230093012203A9384635
:10283000A84705466DB901238DF80C308DF80D6061
:10284000646A00230093022203A93846A047054684
:1028500040B10D4B01930022009213460B49032017
:10286000FEF7ACFE284605B0F0BD094B0093094BBE
:10287000094A40F25C410948FFF704FBFEE70121E9
:10288000FFF712FF0546D5E7BCED00087CEA00081B
:1028900084EE0008E4EA0008ECE90008ECEA00082D
:1028A00010B586B0D0B10446FFF7B8FA034690B928
:1028B000032384F84830636AD3B1236933B1A38A10
:1028C00023B1A36913B1237F002B47D12046FFF723
:1028D00009FD0346B0B1184606B010BD524B009337
:1028E000524B534A40F24D115248FFF7CBFAFEE7E4
:1028F0004D4B0093504B4E4A4FF4AD714D48FFF78E
:10290000C1FAFEE7204600F01BFC38B30023A360A9
:10291000E36D2361B4F85430012B08D00123A38266
:10292000236EA36194F864302377012303E002232C
:10293000A382F5E70133032B10D803F10C0254F8FE
:102940003220002AF6D0A1698A42F3D2A26103F1B3
:102950000C0204EBC20212792277EBE7206988B1FE
:10296000A38A7BB1A3696BB1237F5BB10023112BD9
:1029700017D8324A02EBC3021179227B91420CD064
:102980000133F4E72E4B01930022009213462D49A8
:102990000320FEF713FE01239DE7284A52F8333047
:1029A00000E0002343B3A26842B304900392029371
:1029B000254B019300220092134622490320FEF783
:1029C000FDFD2046FFF71AFE0346002883D1A28AA8
:1029D00012F0040F14D1E26822F07F421B498A42B0
:1029E00015D0002B7FF477AF2269B2F1807F15D824
:1029F000002284F839206EE7154BD4E7144AD4E757
:102A0000002201212046FFF701FF0346E9E70022EB
:102A100011462046FFF7FAFE0346E2E70121204671
:102A2000FFF79CFE034656E728EF0008E4EA00089B
:102A3000ECE90008ECEA0008E4ED00081CF00008EE
:102A4000F4ED00087CEA000830EE0008C220160011
:102A5000DCE9000830B585B00446FFF721FF0546E4
:102A600068B1236802930C4B019300220092134635
:102A70000A490320FEF7A2FD284605B030BD2046D6
:102A8000FFF778FC054618B9012384F83830F3E7DE
:102A9000002384F83830E4E760EE00087CEA0008A0
:102AA00038B50F4C0F4B104AAC212046FFF7EAF91E
:102AB0000E4AAD212046FFF7E5F90024254600E047
:102AC0000134012C09D80A4800EBC4104460FFF718
:102AD000C1FF0028F4D00546F2E7284638BD00BF04
:102AE000ECEA00088CEC000894EC0008D0EC00083C
:102AF0002000002410B584B04FF05A0C8DF808C0A7
:102B00004FEA114C8DF809C04FEA112C8DF80AC01C
:102B10008DF80B104FF0FF0C8DF80CC068B1B1F1BF
:102B2000807F14D2EAB1446A2CB300931346052285
:102B300002A92030A04704B010BD144B0093144BE1
:102B4000144A4FF4AD711448FFF79CF9FEE70F4BA0
:102B50000093124B0F4A40F25B110F48FFF792F9B6
:102B6000FEE70A4B00930E4B0A4A4FF4AE710A4837
:102B7000FFF788F9FEE7054B00930A4B054A40F240
:102B80005D110548FFF77EF9FEE700BF04F8000875
:102B9000E4EA0008ECE90008ACF000080CF10008D9
:102BA00070EA0008E4ED000810B586B00023049335
:102BB000059300B30446002180F85010082304AAAE
:102BC000FFF798FF00BB9DF81030532B0BD19DF8F9
:102BD0001130462B07D19DF81230442B03D19DF8BC
:102BE0001330502B1CD0204A7A212048FFF74AF995
:102BF000002006B010BD1E4B00931E4B1E4A6D21D7
:102C00001A48FFF73FF9FEE71C4B0193002400949C
:102C1000234622461A490320FEF7D0FC2046E8E767
:102C20009DF8142084F852209DF8153084F8513016
:102C3000012B0AD89DF8161001910092114A8321A8
:102C40000A48FFF71FF90120D3E7039202930E4BC6
:102C50000193002400942346224609490320FEF7ED
:102C6000ADFC2046C5E700BF3CF10008ACF0000811
:102C700014F80008E4EA0008ECE900081CF1000878
:102C80007CEA0008C0F1000888F1000830B587B080
:102C900000230493059380B30C46002936D0082303
:102CA00004AA1946FFF726FF002838D19DF81030F6
:102CB00023709DF8115065709DF81210A1709DF859
:102CC0001300E0709DF814209DF815C042EA0C2214
:102CD0009DF816C042EA0C42626001292BD80828F0
:102CE00037D90392029001950091204AAD212048E6
:102CF000FFF7C8F8012007B030BD1E4B00931E4BF4
:102D00001E4A96211A48FFF7BDF8FEE7194B0093BB
:102D10001B4B1A4A97211648FFF7B4F8FEE7194BE8
:102D20000193002400942346224617490320FEF70E
:102D300045FC2046DFE703950291144B01930024E4
:102D400000942346224610490320FEF737FC204614
:102D5000D1E702900E4B01930024009423462246B3
:102D600009490320FEF72AFC2046C4E7E8F20008E0
:102D7000ACF00008F0F70008E4EA0008ECE900080D
:102D800000F2000810F200087CEA000848F200088F
:102D9000A0F20008F0B58FB004464D6800210591FF
:102DA000202206A805F028FCA4B1242305AA294660
:102DB0002046FFF79FFE0546A8B9AE4EAE4ACB218E
:102DC0003046FFF75FF8AD4ACC213046FFF75AF89E
:102DD0002B4635E0AA4B0093AA4BAB4AC221A5482B
:102DE000FFF750F8FEE7A94B019300240094234617
:102DF0002246A7490320FEF7E1FB20460FB0F0BDB5
:102E00009A0002F13B01694411F8240C02F13A01E5
:102E1000694411F8247C02F13901694411F8241C39
:102E200038326A4412F8242C5E1C039202910197F6
:102E300000903346974ACE218E48FFF723F8F3B22D
:102E4000082BDDD99DF8153084F857309DF81420F3
:102E500002F00302012A0DD0032A41D08E4B0193C8
:102E6000002400942346224689490320FEF7A6FB4E
:102E70002046C3E7012284F85620884AD7217D489E
:102E8000FFF700F89DF81430C3F3800213F0040F2D
:102E90002FD0002A36D19DF81430C3F3C00213F0AE
:102EA000080F39D0002A40D19DF81630C3F34103F2
:102EB000012B00F08580022B00F08E80002B58D073
:102EC000002584F85A5084F85B50754B01930095A7
:102ED0002B462A466E490320FEF770FB28468DE7F5
:102EE000002384F856306F4ADB216248FEF7CAFFA0
:102EF000C8E70123A4F854306B4AE6215D48FEF789
:102F0000C1FFC8E74FF48073A4F85430674AEA2140
:102F10005848FEF7B7FFBEE7012384F85830644AEB
:102F2000F5215448FEF7AEFFBEE7002384F8583081
:102F3000604AFA214F48FEF7A5FF9DF81430C3F30D
:102F4000001213F0100F0BD0002AADD0062384F826
:102F50005930594A4FF482714648FEF793FFA3E770
:102F6000502384F85930554AFF214248FEF78AFF22
:102F70009AE7012384F85A30002384F85B30504AE2
:102F800040F20F113B48FEF77DFF9DF81B209DF896
:102F90001A301B0443EA02639DF8191043EA012327
:102FA0009DF818100B43D20923D032BBE36D454A7C
:102FB00040F231112F48FEF765FF2F462E4635E0CF
:102FC000012384F85A3084F85B303F4A4FF48A7109
:102FD0002848FEF757FFD8E7002384F85A3001232A
:102FE00084F85B30394A40F219112248FEF74AFF53
:102FF000CBE7DB080133E365D8E723F00043232B5D
:1030000005D8033B012202FA03F3E365CEE700256E
:10301000E5652F4B019300952B462A461C4903205A
:10302000FEF7CCFA2846E9E60136F6B2032E76D84A
:1030300006F10E035A000EA901EB430313F8243CDA
:10304000002BF1D0012101FA03F3B91C04EBC101FB
:103050000B6539326A4412F8242C81F8542000920E
:103060009B0A1C4A40F237110248FEF70BFF01375A
:10307000FFB2D9E7ACF00008ACF30008D4F30008C5
:10308000DCF70008E4EA0008ECE9000874F3000843
:103090007CEA0008F0F300088CF4000814F400083F
:1030A000C0F6000858F40008C4F40008E4F400086E
:1030B00010F5000840F50008FCF5000884F500084C
:1030C00074F600082CF700088CF60008A8F6000833
:1030D000E4F6000844F700080133DBB2032B1CD8E8
:1030E0009A1C04EBC202126D002AF5D0861C04EB78
:1030F000C606376DBA42EFD2861C04EBC60696F8B8
:1031000054C032659A1C04EBC20292F8541086F83F
:103110005410176582F854C0DEE70135EDB2032D77
:1031200009D82846AB1C04EBC3031B6D002BF4D05D
:103130006B1CDBB2D2E7012084F850005EE600BFD2
:1031400010B586B0B8B10446FFF72EFD20B104A932
:103150002046FFF79BFDB8B9236802930D4B0193FE
:1031600000240094234622460B490320FEF726FA4A
:10317000204606B010BD094B0093094B094A512166
:103180000948FEF77FFEFEE704A92046FFF702FE8E
:10319000EFE700BF80F700087CEA000828F8000885
:1031A000E4EA0008ECE90008ACF0000830B58BB0A8
:1031B000002405940694079408940994224BD3F8AC
:1031C000E02042F08002C3F8E020D3F8E02002F0D3
:1031D00080020192019AD3F8E02042F00102C3F884
:1031E000E020D3F8E02002F001020292029AD3F824
:1031F000E02042F00202C3F8E020D3F8E02002F021
:1032000002020392039AD3F8E02042F01002C3F8BE
:10321000E020D3F8E03003F010030493049B0B4D3F
:1032200022464FF48051284600F092FE4FF480531E
:1032300005930123069307940323089305A92846C1
:1032400000F078FD0BB030BD004402580004025875
:1032500072B6FEE700B59DB04C22002109A805F02A
:10326000CBF92022002101A805F0C6F9012001F0C8
:1032700055FC00230093204B9A6922F440429A6146
:103280009B6903F440430093009B1B4B9B6913F421
:10329000005FFAD0012109914FF480330A93022391
:1032A00012931393052214926E2015901691179283
:1032B00018930823199300231A931B9309A801F06C
:1032C00057FCA8B93F2301930321029100230393E4
:1032D000082304934023059306934FF480620792DA
:1032E000089301A802F046F820B91DB05DF804FB70
:1032F000FFF7AEFFFFF7ACFF0048025880B584B07F
:103300008D4B5B6913F4003F13D1BFF34F8FBFF3B5
:103310006F8F894B0022C3F85022BFF34F8FBFF34A
:103320006F8F5A6942F400325A61BFF34F8FBFF377
:103330006F8F814B5B6913F4803F27D17E4B002256
:10334000C3F88420BFF34F8FD3F88040C4F34E30CE
:1033500000E01846C4F3C90243F6E07303EA4013E1
:1033600043EA82737449C1F860321346013A002B74
:10337000F2D1431E0028ECD1BFF34F8F4B6943F4C9
:1033800080334B61BFF34F8FBFF36F8F00F008FCAA
:10339000FFF760FFFFF70AFF00F0E4F800F02CFBF6
:1033A00000F0C6F9FEF734FCFF210020FEF70EFB0B
:1033B00007210120FEF70AFB07210220FEF706FB8A
:1033C00007210320FEF702FB07210420FEF7FEFA87
:1033D000FEF7DCFAFFF764FB002849D10120FEF775
:1033E000E3FF0421FEF7EEFF0120FEF7DDFFFEF70D
:1033F000DDFE4FF0104318685968504A1060504F76
:103400003B60504E316013684F4D02934F4B019318
:10341000002400942346224629460320FEF7CEF8D6
:103420003B6802934A4B0193009423462246294667
:103430000320FEF7C3F833680293464B01930094D0
:103440002346224629460320FEF7B8F800F064FC24
:10345000394BC3F88440BFF34F8F5A6922F480324E
:103460005A61BFF34F8FD3F88040C4F34E300AE067
:10347000394B019300220092134633490120FEF795
:103480009DF8ABE71846C4F3C90243F6E07303EABC
:10349000401343EA82732849C1F874321346013A53
:1034A000002BF2D1431E0028ECD1BFF34F8FBFF3A6
:1034B0006F8FBFF34F8FBFF36F8F4B6923F40033D0
:1034C0004B610023C1F85032BFF34F8FBFF36F8FB2
:1034D00072B64FF0E0221361536193610CE01F4A12
:1034E00003F120004FF0FF3142F8201003F160009B
:1034F00042F820100133DBB2072BF0D962B60F4B34
:103500001B6883F30888002383F314880C4B1A6824
:10351000094B9A600B4B1B689847114B0193002293
:103520000092134608490320FEF748F84FF47A70DA
:1035300000F076FBF1E700BF00ED00E0940D002401
:10354000900D00248C0D002438F8000858F800086D
:103550006CF8000880F8000844F8000800E100E07A
:1035600094F8000800B587B00023009301930293FC
:103570000393049305931848184A02600822426096
:103580008360C36017210161012141618361C161D1
:103590000362052141624FF080418162C36203638F
:1035A00042638363C36300F0A7FF78B901230093EC
:1035B00002934FF00113039341F2883269460648A3
:1035C00001F01EF828B907B05DF804FBFFF740FED4
:1035D000ECE7FFF73DFEF6E7980D0024005000529F
:1035E0002DE9F041BAB0044600213591369137916A
:1035F00038913991B82206A804F0FEFF2268484BA2
:103600009A4202D03AB0BDE8F0814FF00072002338
:10361000CDE9062306A802F049F900287CD1414BE8
:10362000D3F8D42042F40012C3F8D420D3F8D42025
:1036300002F400120192019AD3F8D42042F480429D
:10364000C3F8D420D3F8D42002F480420292029A24
:10365000D3F8E02042F00102C3F8E020D3F8E020E4
:1036600002F001020392039AD3F8E02042F0020232
:10367000C3F8E020D3F8E02002F002020492049A9A
:10368000D3F8E02042F01002C3F8E020D3F8E03095
:1036900003F010030593059B4023359302263696CD
:1036A0000025379503243894062339931E4F35A9F6
:1036B000384600F03FFB8023359336963795389493
:1036C0000A23399335A9384600F034FB35943696F1
:1036D000379538944FF00408CDF8E48007F58067FB
:1036E00035A9384600F026FBCDF8D48036963795BC
:1036F00038940923399335A9384600F01BFB4FF461
:10370000006335933696379538940B23399335A952
:10371000064800F00FFB75E7FFF79AFD7FE700BF53
:103720000050005200440258000002580010025895
:1037300008B51348134B03604FF480034360002324
:1037400083600722C260036143614FF0806282613F
:10375000C361036243628362C3624FF0804242638B
:103760008363C363036443648364C3640365436521
:10377000836503F079F800B908BDFFF769FDFBE741
:10378000F40D00240038004010B5B6B00446002106
:1037900031913291339134913591B82202A804F0DD
:1037A0002BFF22681C4B9A4201D036B010BD4FF45B
:1037B00080520023CDE9022302A802F077F840BB33
:1037C000164BD3F8E82042F48042C3F8E820D3F83F
:1037D000E82002F480420092009AD3F8E02042F000
:1037E0000202C3F8E020D3F8E03003F002030193B3
:1037F000019B4FF4604331930223329300233393B0
:10380000032334930523359331A9054800F092FA38
:10381000CBE7FFF71DFDD3E7003800400044025816
:103820000004025882B0074BD3F8F42042F00202A1
:10383000C3F8F420D3F8F43003F002030193019BA2
:1038400002B0704700440258FEE7FEE7FEE7FEE7DD
:10385000FEE770477047704708B500F0CFF908BD24
:103860000120704708B505F011FA162303604FF0E8
:10387000FF3008BD08B54FF0FF31FFF7F3FFFEE75B
:1038800070B50C461646002506E0AFF300802146D1
:1038900001F8010B01350C46B542F6DB304670BD30
:1038A00070B50C461646002504E014F8010BAFF382
:1038B00000800135B542F8DB304670BD4FF0FF3077
:1038C00070474FF400534B60002070470120704751
:1038D0000020704710B503460C4A0D490D4800689A
:1038E00040B10C4800680344521A934206D8094A72
:1038F000136010BD0748084C0460F2E705F0C6F9F4
:103900000C2303604FF0FF30F3E700BF00000524F5
:10391000000400007C0E002430120024274B1B689A
:1039200003F00F03062B06D8244A136823F00F0375
:1039300043F007031360224B1A6842F001021A6039
:1039400000221A6119681F4A0A401A601B4B1B6843
:1039500013F0080F06D0194A136823F00F0343F041
:1039600007031360164B00229A61DA611A62164946
:1039700099621649D962164919635A639963DA63E1
:1039800019645A64196821F4802119601A66D3F801
:10399000D43013F4805F10D1094BD3F8D42042F413
:1039A0008052C3F8D4200B4A43F2D2011160D3F8FD
:1039B000D42022F48052C3F8D42070470020005253
:1039C000004402587FEDF6EA000202020000FF0107
:1039D0008002010100400052064AD36823F003032D
:1039E00043F00103D360034B5B6813F4005FFAD02C
:1039F000704700BF0048025808B51748174B0360CE
:103A00004FF4E133436000238360C36003610C2201
:103A100042618361C36103624362836203F045FFD5
:103A200070B900210C4803F0B8FF60B900210A48C2
:103A300003F0D8FF50B9084803F090FF48B908BD1B
:103A4000FFF706FCEDE7FFF703FCEFE7FFF700FCED
:103A5000F1E7FFF7FDFBF2E7800E00240044004091
:103A600010B5B6B0044600213191329133913491B2
:103A70003591B82202A804F0BFFD22681B4B9A4280
:103A800001D036B010BD02220023CDE9022302A8E6
:103A900001F00CFF30BB164BD3F8E82042F40032A3
:103AA000C3F8E820D3F8E82002F400320092009A2C
:103AB000D3F8E02042F00102C3F8E020D3F8E03070
:103AC00003F001030193019B0C23319302233293F2
:103AD0000023339334930723359331A9054800F02D
:103AE00029F9CEE7FFF7B4FBD5E700BF004400405B
:103AF0000044025800000258DFF838D0FFF76CFF8E
:103B0000FFF70CFF0C480D490D4A002302E0D45882
:103B1000C4500433C4188C42F9D30A4A0A4C002317
:103B200001E013600432A242FBD305F0B5F8FFF7C1
:103B3000E5FB70470000052400000024E007002496
:103B400008FD0008E00700242C120024FEE7000016
:103B5000104B1B780BB90120704710B504464FF489
:103B60007A70B0FBF3F30C4A1068B0FBF3F000F08E
:103B7000BFF868B90F2C01D901200AE000222146C4
:103B80004FF0FF3000F0A4F8044B1C60002000E070
:103B9000012010BD28010024240100242C01002450
:103BA00010B5032000F082F801F0D8FA0F498B69B4
:103BB000C3F303230E4AD35C03F01F03D8408B6981
:103BC00003F00F03D35C03F01F0320FA03F3094A49
:103BD0001360094B18600F20FFF7BAFF10B10124E2
:103BE000204610BD0446FFF71DFEF9E700440258C9
:103BF000A4F800082001002424010024034B1B78B2
:103C0000034A11680B441360704700BF2801002469
:103C1000140F0024014B1868704700BF140F0024D4
:103C200038B50446FFF7F6FF0546B4F1FF3F02D072
:103C3000044B1B781C44FFF7EDFF401BA042FAD356
:103C400038BD00BF28010024002804DB0901C9B2E7
:103C5000044B1954704700F00F000901C9B2024B20
:103C60001954704700E400E014ED00E000B500F0E6
:103C70000700C0F1070CBCF1040F28BF4FF0040C83
:103C8000031D062B0FD9C31E4FF0FF3E0EFA0CF09A
:103C900021EA000199400EFA03FE22EA0E0241EAEF
:103CA00002005DF804FB0023EEE700000649CB6844
:103CB00023F4E0631B041B0C000200F4E0600343E8
:103CC000024A1A43CA60704700ED00E00000FA059E
:103CD00010B50446054BD868C0F30220FFF7C6FFB5
:103CE00001462046FFF7B0FF10BD00BF00ED00E029
:103CF0000138B0F1807F0BD24FF0E0235861054AC4
:103D0000F02182F823100020986107221A61704781
:103D10000120704700ED00E0BFF35F8F044B5A6A4B
:103D200022F480325A620022C3F89420704700BF08
:103D300000ED00E070B582B000236EE085685E00A3
:103D40000324B44025EA0405CC68B4402C438460C5
:103D5000456825EA0C054C68C4F300149C402C43CC
:103D600044606DE0DD08083550F8254003F0070C8D
:103D70004FEA8C0C4FF00F0E0EFA0CFE24EA0E0EDA
:103D80000C6904FA0CF444EA0E0440F825406FE094
:103D9000092400E0002404FA0EF42C430CF1020C78
:103DA000684D45F82C404FF0B0442568D44325EACF
:103DB0000206D1F804C01CF4801F01D042EA0506B7
:103DC0004FF0B0452E606D6804EA0506D1F804C0D6
:103DD0001CF4001F01D042EA05064FF0B0456E60AA
:103DE000D5F8845004EA0506D1F804C01CF4003F5D
:103DF00001D042EA05064FF0B045C5F88460D5F819
:103E000080502C404E6816F4803F01D042EA0504F1
:103E10004FF0B042C2F8804001330A6832FA03F42E
:103E200000F08D804FF0010C0CFA03FC1CEA02023A
:103E3000F2D04C6804F00304013C012C7FF67EAF05
:103E40004C6804F00304032C0CD0C4685D004FF0F0
:103E5000030C0CFA05FC24EA0C0C8C68AC4044EA18
:103E60000C04C4604C6804F00304022C3FF47AAFE5
:103E700004684FEA430E4FF0030C0CFA0EFC24EAE0
:103E80000C0C4C6804F0030404FA0EF444EA0C042D
:103E900004604C6814F4403FBED02B4CD4F8F4506E
:103EA00045F00205C4F8F450D4F8F44004F00204DC
:103EB0000194019C4FEA930C0CF10205214C54F83B
:103EC000255003F0030E4FEA8E0E0F2404FA0EF471
:103ED00025EA04051D4CA0423FF45CAF04F5806464
:103EE000A0421ED004F58064A0421CD004F580647A
:103EF000A0421AD004F58064A04218D004F5806472
:103F0000A04216D004F58064A04214D004F5806469
:103F1000A04212D004F50064A0423FF439AF0A2455
:103F200039E7012437E7022435E7032433E7042483
:103F300031E705242FE706242DE707242BE702B0FD
:103F400070BD00BF00040058004402580000025831
:103F50000AB181617047090481617047F0B5026858
:103F6000136823F040531360836833B90268136801
:103F700023F080034C68234313600B68022B4DD061
:103F8000032B55D0036803F5807203F5847E03F597
:103F9000887C03F59073CC6C8D6C2C431460CC6AD8
:103FA0005CB18C6A1C60136823F47C13CC6A4D6B83
:103FB0002C430D6B2C4323431360DEF8003023F0B9
:103FC0001F034C6C2343CEF800308B6B2BB10B6876
:103FD0001BB9CB6B0468013B2364CB68002B73D007
:103FE000CC69002C48D08D6B65B31768484E3E40B5
:103FF0004F693B430F693B4323434C6A23430C6A9D
:1040000023431D430B6C1D432E4316608B68CCF875
:10401000003003688A699A640020F0BD036803F5E4
:10402000C07203F5C47E03F5C87C03F5D073B2E714
:10403000036803F5A07203F5A47E03F5A87C03F5DD
:10404000B073A8E71668334D35404E691E430B69BF
:104050001E4334434B6A1C430B6A1C4325431560C3
:10406000C36AB3F1805FD1D14B69082BCED11368FD
:1040700043F000631360C9E78C6B84B11568264870
:1040800028404D691D430B691D432C430B6C1C4399
:10409000204310608B68CCF800300020BDE7146826
:1040A00024F03F044D692B430D692B4323431360D8
:1040B000C36AB3F1805FEDD14B69082BEAD1136875
:1040C00043F000631360E5E7CB69E3B18C6B84B127
:1040D0001668124D35404E6A33430E6A33431C4313
:1040E0000B6C1C432543156003688A699A640020A1
:1040F00093E7146824F47C544D6A2B430D6A2B43D8
:1041000023431360F0E708234365012085E700BFE0
:10411000C0C0FFF0C0C0FFFFC0FFFFF0FFC0FFF056
:10412000431EDBB2012B01D901207047002964D066
:1041300010B400230B604B608B60CB600B610228D6
:1041400002D00024002213E02D4B1B6813F0010F56
:1041500001D12C4CF6E74FF40074F3E7501C40F00B
:104160008070C86036E0531C43F080730B610132ED
:10417000012A3FD89000244B1B5813F0010F06D0A2
:1041800084EA030010F0020F01D1501C086013F004
:10419000100F06D084EA030010F0200F01D1501C4C
:1041A000486013F4807F06D084EA030010F4007F97
:1041B00001D1501C886013F4803F0BD084EA0300C7
:1041C00010F4802F06D113F4003FC7D1501C40F4E7
:1041D0008030C86013F0807FC9D084EA030010F0FB
:1041E000806FC4D113F0007FBDD1531C43F48033E2
:1041F0000B61BCE7002010BC70470120704700BF76
:1042000000B400522202040404B400522DE9F84321
:1042100005460F4616469946DDF820802C68246A2C
:104220003C4214BF4FF0010C4FF0000CB44514D0C9
:10423000B8F1FF3FF2D0FFF7EDFCA0EB09004045DD
:1042400002D8B8F1000FE9D14FF400732B656B6D04
:1042500043F001036B65012000E00020BDE8F88316
:104260002DE9F04182B0044688461746FFF7D2FC9C
:104270000646256D022D09D0142D24D0242D28D0DA
:1042800010236365012002B0BDE8F081E368B3F15B
:10429000806FF1D000973346002220212046FFF79F
:1042A000B5FF0028EFD1606541462046FFF756FE76
:1042B0000028E8D1D8F8383093B1D8F80030D3B915
:1042C00004232365DFE7D8F80030023B012BD5D863
:1042D000E0E7D8F80030032B18BF012BD0D1D9E785
:1042E00000973346012202212046FFF78FFF236803
:1042F00002225A62C7E7012B07D0022BC3D1236DDC
:10430000142B0BD024232365BDE7236D242B02D06F
:1043100014232365B7E704232365B4E70423236547
:10432000B1E72DE9F04182B0044688461646FFF712
:1043300071FC2768B8F1000F0AD00546236D042BE5
:104340000AD0102363650123184602B0BDE8F0814E
:10435000082363650123F7E73B6C0133A364A36C77
:104360006364C4F840803B6823F040533B60009690
:104370002B46012204212046FFF748FF034660B97F
:10438000226C127887F85020216C01312164A16CD5
:104390000139A164A26C002AE9D1002BD4D1009686
:1043A0002B46012202212046FFF730FF034600285A
:1043B000CAD1216802224A622265C5E72DE9F0418F
:1043C00082B0044688461746FFF724FC2568AA6C8D
:1043D000D5F81011B8F1000F0AD00646236D042B52
:1043E0000AD0102363650123184602B0BDE8F081AE
:1043F000082363650123F7E72B6C0133A364A36CE7
:104400006364C4F840802B6823F0405343F080532A
:104410002B60E368B3F1806F07D02368D3F8000105
:1044200010F4E06F2AD09A6401E023689A64009740
:104430003346012206212046FFF7E8FE034660B915
:10444000226C95F850101170216C01312164A16C1F
:104450000139A164A26C002AE9D1002BC4D10097D4
:104460003346012202212046FFF7D0FE03460028F2
:10447000BAD1216802224A622265B5E7C3F8101159
:10448000D5E7000030B583B004460D46FFF7C2FB08
:10449000236D042B04D010236365012003B030BDCD
:1044A000A36D00930346002220212046FFF7AEFEB5
:1044B0000028F3D1882323652B68082B09D02268B4
:1044C00011680A4B0B4029680B4343F040531360BB
:1044D000E4E723686A68C3F83021236810225A622F
:1044E0002268136843F480131360E8E7F7FFFFCFF7
:1044F000816500207047000030B583B00446FFF7A7
:1045000089FB002C77D0054600236365236D13B12A
:10451000002003B030BD2046FFF762F841F2883139
:104520002046FFF7E5FF20688268344B1340E268BD
:104530002169013942EA01426169013942EA0122F5
:10454000616B0A43E1690A43134383602268D368BD
:1045500023F4E023216A0B43D360216BA36B226811
:1045600043EA014313612368E26B5A6121680B68D7
:1045700023F4F8536268013A43EA02230B60A36D07
:1045800000932B46002220212046FFF73FFE002803
:10459000BFD12168CB6823F0FF03626A013A13435D
:1045A000CB602268136823F04003A1680B431360BB
:1045B0002168D1F8083123F0A043A26AE56A2A43B2
:1045C0001343C1F808312268136843F001031360F4
:1045D000A369022B06D0E368B3F1806F08D00223F1
:1045E000236596E72268936843F002039360F2E73D
:1045F000012323658DE701208BE700BFF4F8E0F885
:104600002DE9F0438DB081460D460268A24B9A42D7
:1046100005D04FF00008012600231F4604E04FF0AC
:1046200001080026F8E72346012B0FD85C1CE4B2F2
:1046300003EB43030DEBC3012046FFF771FD002898
:10464000F1D00823C9F854300127ECE7002F40F0DF
:104650001C81914B1B6813F0010F00F01A818E4AE8
:10466000136823F00103136001218C4B1B6813F0C6
:10467000010F07D0894A136823F00103136041F04A
:104680000201C9B206EB46030CAA02EBC30353F8BE
:10469000283C013B824800EB83035A6822F4807275
:1046A0005A60036813F0010F00F03E81036823F0A5
:1046B00001030360B8F1000F40F0F4802C6843461A
:1046C00008EB48020CA800EBC20252F8300C8442FE
:1046D00029D008EB48080CAA02EBC80858F8282C87
:1046E000D5F808C094451ED0D5F804C00DF1300EA1
:1046F00058F82C2C944500F0608103EB430C0CAA75
:1047000002EBCC0C5CF8242CD5F80CC094450AD0F4
:1047100003EB430C0CAA02EBCC0C5CF8202CD5F874
:1047200010C0944548D1844200F04C81013880008B
:104730005B4A0244506820F00100506003EB4302E2
:104740000CA800EBC20252F82C2C3AB1013A9200AC
:1047500053481044426822F01002426003EB4300C9
:104760000CAA02EBC00050F8282C013A92004C4CE5
:104770001444626822F48072626050F8242C4AB1BA
:10478000013A02F00102920045481044426822F4C6
:104790008032426003EB43030CAA02EBC30353F8DD
:1047A000203C4BB1013B03F001039B003C4A1A44FF
:1047B000536823F080735360AA68013A384800EBCD
:1047C0008202536823F4407343EA462343F4807320
:1047D00053606B69013B0268C2F30742934205D9FB
:1047E000026822F47F0242EA034303602C4B1B68F9
:1047F00013F0010F00F02C812B68013B9B00284A2D
:104800001A44536823F0030343F0010353606B68B9
:104810004BB1013B9B00224A1A44536823F03003FA
:1048200043F010035360EB6813F4803F00F0F08016
:10483000013B03F001039B00194A1A44536823F417
:10484000E02343F4803353602B6913F4803F00F07E
:10485000EF80013B03F001039B00114A1A445368A7
:1048600023F4E02343F44033536011F0010F04D0EC
:10487000094A136843F00103136011F0020F04D0DA
:10488000064A136843F00103136038460DB0BDE8D3
:10489000F0833946E9E600BF0050005200A0005204
:1048A00000B40052434608EB48000CAA02EBC000DB
:1048B00050F8302C013A9200974C1444626842F050
:1048C0000202626050F82C2C3AB1013A92009248F0
:1048D0001044426842F02002426003EB43020CA8FD
:1048E00000EBC20252F8242C4AB1013A02F0010254
:1048F000920089481044426842F48022426003EBEF
:1049000043030CAA02EBC30353F8203C002B3FF4F3
:10491000D5AE013B03F001039B007F4A1A44536864
:1049200043F080635360C9E606EB46030CAA02EB32
:10493000C30353F8303C002B3FF4C0AE013B9B0057
:10494000754A1A44536823F00103536006EB46038B
:104950000CAA02EBC30353F82C3C3BB1013B9B0078
:104960006D4A1A44536823F01003536006EB460364
:104970000CAA02EBC30353F8243C4BB1013B03F0F8
:1049800001039B00644A1A44536823F48033536044
:1049900006EB46030CAA02EBC30353F8203C002BA2
:1049A0003FF48CAE013B03F001039B005A4A1A44CA
:1049B000536823F08073536080E6BCF1000F7FF4EE
:1049C000B2AE9AE66C6803EB43020DF1300C0CEBCF
:1049D000C20252F82C2C94427FF4A8AEEC6803EB90
:1049E00043020CEBC20252F8242C94427FF49EAE98
:1049F0002C6903EB43020CEBC20252F8202C9442C8
:104A00007FF494AE444A136843F001031360D3E685
:104A1000002B3FF419AF013B03F001039B003E4A1A
:104A20001A44536823F0E06343F0807353600BE74C
:104A3000002B3FF41AAF013B03F001039B00364A01
:104A40001A44536823F0E06343F0407353600CE76B
:104A50002B68013B9B00304A1A44536823F0030340
:104A600043EA460343F0010353606B685BB1013BCB
:104A70009B00294A1A44536823F0300343EA461343
:104A800043F010035360EB6813F4803F20D0013BE8
:104A900003F001039B00204A1A44536823F4E023E7
:104AA00043EA864343F4803353602B6913F4803F19
:104AB0001FD0013B03F001039B00174A1A445368BF
:104AC00023F4E02343EA864343F440335360CCE6C7
:104AD000002BEAD0013B03F001039B000E4A1A446D
:104AE000536823F0E06343EA866343F080735360C6
:104AF000DBE7002B3FF4B9AE013B03F001039B0061
:104B0000054A1A44536823F0E06343EA866343F09E
:104B100040735360A9E600BF00B40052134BDB683A
:104B200013F0040F07D1114BDB6803F00703834236
:104B30001AD00120704710B50C4AD36823F0070340
:104B40000343D360FFF766F80446084B5B6813F431
:104B5000005F07D1FFF75EF8001BB0F57A7FF4D94C
:104B6000012000E0002010BD0020704700480258DE
:104B7000002800F0D78238B50446036813F0010F0F
:104B800025D0A04A136903F03803926A102B15D080
:104B9000182B0FD06368B3F5803F3FD0002B53D163
:104BA000984B1A6822F480321A601A6822F4802224
:104BB0001A6038E002F00302022AEBD1914B1B6825
:104BC00013F4003F03D06368002B00F0AD8223682C
:104BD00013F0020F00F088808A4A1369926A13F07A
:104BE00038035AD0182B55D0E368002B00F0A98069
:104BF00084490A6822F0190213430B60FFF70AF890
:104C00000546804B1B6813F0040F40F09180FFF7BE
:104C100001F8401B0228F4D903208CE2794A13687A
:104C200043F48033136063682BB3FEF7F3FF05464C
:104C3000744B1B6813F4003FC9D1FEF7EBFF401B18
:104C40006428F5D9032076E2B3F5A02F09D06D4B87
:104C50001A6822F480321A601A6822F480221A60DC
:104C6000E1E7684B1A6842F480221A601A6842F43D
:104C700080321A60D7E7FEF7CDFF0546614B1B680F
:104C800013F4003FA3D0FEF7C5FF401B6428F5D9FD
:104C9000032050E212F0030FA6D15A4B1B6813F009
:104CA000040F03D0E368002B00F04082554A1368DC
:104CB00023F01903E1680B431360FEF7ABFF0546D1
:104CC000504B1B6813F0040F06D1FEF7A3FF401BE7
:104CD0000228F5D903202EE24A4A536823F0FE4306
:104CE000216943EA01635360236813F0100F51D028
:104CF000444A136903F03803926A082B39D0182B01
:104D000033D0E369002B69D03E4A136843F0800337
:104D10001360FEF77FFF05463A4B1B6813F4807F54
:104D200053D1FEF777FF401B0228F5D9032002E29A
:104D3000344A536823F0FE43216943EA0163536018
:104D4000D2E7304A136823F001031360FEF762FFD5
:104D500005462C4B1B6813F0040FC5D0FEF75AFF15
:104D6000401B0228F5D90320E5E102F00302012AE5
:104D7000C7D1244B1B6813F4807F03D0E369802BD9
:104D800040F0D6811F4AD36823F07C53216A43EA5E
:104D90000163D360236813F0080F49D06369002BC7
:104DA00032D0184A536F43F001035367FEF732FFC6
:104DB0000546144B5B6F13F0020F39D1FEF72AFF43
:104DC000401B0228F5D90320B5E10E4AD36823F031
:104DD0007C53216A43EA0163D360DBE7094A136825
:104DE00023F080031360FEF715FF0546054B1B6893
:104DF00013F4807FCED0FEF70DFF401B0228F5D9BB
:104E0000032098E1004402589D4A536F23F00103A8
:104E10005367FEF7FFFE0546994B5B6F13F0020FD9
:104E200006D0FEF7F7FE401B0228F5D9032082E1E9
:104E3000236813F0200F29D0A3699BB1904A13680F
:104E400043F480531360FEF7E5FE05468C4B1B6868
:104E500013F4005F1AD1FEF7DDFE401B0228F5D9DE
:104E6000032068E1864A136823F480531360FEF739
:104E7000D1FE0546824B1B6813F4005F06D0FEF797
:104E8000C9FE401B0228F5D9032054E1236813F022
:104E9000040F21D1636A002B00F04C81784A12691B
:104EA00002F03802182A00F0F380022B75D0744A01
:104EB000136823F080731360FEF7ACFE0446704B5A
:104EC0001B6813F0007F00F0D880FEF7A3FE001BE4
:104ED0000228F4D903202EE16A4A136843F4807350
:104EE0001360FEF797FE0546664B1B6813F4807F40
:104EF00006D1FEF78FFE401B6428F5D903201AE186
:104F0000A368012B0AD00BBB5D4B1A6F22F0010284
:104F10001A671A6F22F004021A6704E0584A136FE6
:104F200043F001031367A36833B3FEF773FE05462E
:104F3000534B1B6F13F0020FACD1FEF76BFE401BFF
:104F400041F288339842F3D90320F4E0052B09D0CD
:104F50004B4B1A6F22F001021A671A6F22F00402FB
:104F60001A67E0E7464B1A6F42F004021A671A6F9D
:104F700042F001021A67D6E7FEF74CFE0546404BA9
:104F80001B6F13F0020F85D0FEF744FE401B41F269
:104F900088339842F3D90320CDE0394A136823F0CF
:104FA00080731360FEF736FE0546354B1B6813F021
:104FB000007F06D0FEF72EFE401B0228F5D9032005
:104FC000B9E02F4B996A304A0A40A16AE06A41EA87
:104FD00000110A439A62226B013AC2F30802616B24
:104FE0000139490289B20A43A16B0139090401F46C
:104FF000FE010A43E16B0139090601F0FE410A4353
:105000001A63DA6A22F00102DA62596B1F4A0A4017
:10501000A16C42EAC1025A63DA6A22F00C02216CE6
:105020000A43DA62DA6A22F00202616C0A43DA6247
:10503000DA6A42F48032DA62DA6A42F40032DA6220
:10504000DA6A42F48022DA62DA6A42F00102DA6253
:105050001A6842F080721A60FEF7DCFD0446084BC5
:105060001B6813F0007F06D1FEF7D4FD001B022859
:10507000F5D903205FE000205DE000205BE000BF89
:1050800000440258004802580CFCFFFF0700FFFFD5
:1050900030498A6A086B012B4ED002F00303A16AE3
:1050A0008B424BD1C2F30512E36A9A4248D1C0F356
:1050B0000802236B013B9A4244D1C0F34622636B42
:1050C000013B9A4240D1C0F30642A36B013B9A4296
:1050D0003CD1C0F30660E36B013B984238D11D4BD5
:1050E0005B6BC3F3CC03A26C9A4201D1002022E097
:1050F000184AD36A23F00103D362FEF78BFD0546FD
:10510000FEF788FDA842FBD0124A516B124B0B40B0
:10511000A16C43EAC1035363D36A43F00103D36232
:10512000002008E001207047012004E0012002E097
:10513000012000E0002038BD0120FCE70120FAE753
:105140000120F8E70120F6E70120F4E70120F2E76B
:105150000120F0E7004402580700FFFFF8B57E4B3E
:105160001B6903F03803102B00F0F280182B10D0CD
:1051700013B17A4C2046F8BD774B1B6813F0200F13
:1051800000F0E880744B1B68C3F3C103744CDC402F
:10519000F0E7714B9D6A05F003059C6AC4F30514A2
:1051A000D86A00F001005B6BC3F3CC0303FB00F093
:1051B000FBF75CF90646002CDCD0012D76D0022DE1
:1051C00000F0A4800DB32046FBF750F90146654876
:1051D000FBF758FA0446604B186BC0F30800FBF766
:1051E00045F905464FF064513046FBF797F9014603
:1051F0002846FBF78BF84FF07E51FBF787F8014606
:105200002046FBF78BF9044671E0534B1B6813F003
:10521000200F29D0504F3B68C3F3C1035048D840FA
:10522000FBF724F905462046FBF720F901462846FE
:10523000FBF728FA0446386BC0F30800FBF716F9B1
:1052400005464FF064513046FBF768F901462846A1
:10525000FBF75CF84FF07E51FBF758F8014620460B
:10526000FBF75CF9044642E02046FBF7FFF80146F5
:105270003D48FBF707FA0446374B186BC0F30800AC
:10528000FBF7F4F805464FF064513046FBF746F95A
:1052900001462846FBF73AF84FF07E51FBF736F807
:1052A00001462046FBF73AF9044620E02046FBF78A
:1052B000DDF801462B48FBF7E5F90446264B186B51
:1052C000C0F30800FBF7D2F805464FF064513046B2
:1052D000FBF724F901462846FBF718F84FF07E51FA
:1052E000FBF714F801462046FBF718F904461A4B61
:1052F0001B6BC3F34623581CFBF7B8F80146204646
:10530000FBF7C0F9FBF75AFA044633E72046FBF7F0
:10531000ADF801461548FBF7B5F904460E4B186B7E
:10532000C0F30800FBF7A2F805464FF06451304681
:10533000FBF7F4F801462846FAF7E8FF4FF07E51F4
:10534000FAF7E4FF01462046FBF7E8F80446CEE70B
:10535000074C0FE7024C0DE70044025800093D00DE
:105360000090D0030024744A0024744C20BCBE4B2F
:1053700040787D01002800F0328170B50D4604466A
:105380009B4B1B6803F00F038B420BD2984A1368A8
:1053900023F00F030B431360136803F00F038B42DA
:1053A00040F01F81236813F0040F0CD02269914B49
:1053B0009B6903F070039A4205D98E498B6923F0EB
:1053C00070031A438A61236813F0080F0CD06269D6
:1053D000884BDB6903F070039A4205D98549CB6994
:1053E00023F070031A43CA61236813F0100F0CD026
:1053F000A269804BDB6903F4E0639A4205D97D49D9
:10540000CB6923F4E0631A43CA61236813F0200FC9
:105410000CD0E269774B1B6A03F070039A4205D9FE
:1054200074490B6A23F070031A430A62236813F06D
:10543000020F0CD0E2686F4B9B6903F00F039A4296
:1054400005D96C498B6923F00F031A438A612368DD
:1054500013F0010F41D0674A936923F47063A16888
:105460000B4393616368022B0AD0032B27D0012BD7
:105470002CD0604A126812F0040F06D10120ADE072
:10548000126812F4003F00F0AE805A490A6922F017
:10549000070213430B61FEF7BDFB0646554B1B6924
:1054A00003F038036268B3EBC20F16D0FEF7B2FB0D
:1054B000801B41F288339842F0D903208EE04D4A98
:1054C000126812F0007FE0D1012087E0494A12689B
:1054D00012F4807FD9D1012080E0236813F0020FFD
:1054E0000CD0E268434B9B6903F00F039A4205D24C
:1054F00040498B6923F00F031A438A613C4B1B68B8
:1055000003F00F03AB420AD9394A136823F00F03A3
:105510002B431360136803F00F03AB4265D123687C
:1055200013F0040F0CD02269324B9B6903F0700317
:105530009A4205D22F498B6923F070031A438A617E
:10554000236813F0080F0CD062692A4BDB6903F063
:1055500070039A4205D22749CB6923F070031A439E
:10556000CA61236813F0100F0CD0A269214BDB69CC
:1055700003F4E0639A4205D21E49CB6923F4E06349
:105580001A43CA61236813F0200F0CD0E269194B4B
:105590001B6A03F070039A4205D216490B6A23F086
:1055A00070031A430A62FFF7D9FD12498B69C3F3EE
:1055B0000323114AD35C03F01F03D8408B6903F027
:1055C0000F03D35C03F01F0320FA03F30B4A1360AD
:1055D0000B4B18600B4B1868FEF7BAFA70BD012030
:1055E00070470120FAE70120F8E70120F6E700BF45
:1055F0000020005200440258A4F8000820010024B2
:10560000240100242C01002408B5FFF7A7FD0B4A54
:105610009369C3F303230A49CB5C03F01F0320FA09
:1056200003F3926902F00F02885C00F01F0023FA76
:1056300000F0044A1060044A136008BD0044025898
:10564000A4F80008200100242401002408B5FFF775
:10565000DBFF054BDB69C3F30213044AD35C03F0A1
:105660001F03D84008BD00BF00440258A4F800083A
:1056700008B5FFF7C9FF054BDB69C3F30223044AF2
:10568000D35C03F01F03D84008BD00BF004402589C
:10569000A4F80008404B9B6A03F00303032B79D066
:1056A00070B505460E463C4A136823F080631360CC
:1056B000FEF7B0FA0446384B1B6813F0006F06D0B3
:1056C000FEF7A8FA031B022BF5D9032070BD324B5D
:1056D0009A6A22F47C32296842EA01329A626A6844
:1056E000013AC2F30802A9680139490289B20A43A2
:1056F000E9680139090401F4FE010A432969013905
:10570000090601F0FE410A439A63DA6A22F0C002F8
:1057100069690A43DA62DA6A22F02002A9690A4357
:10572000DA62DA6A22F01002DA62D96B1B4A0A40A6
:10573000E96942EAC102DA63DA6A42F01002DA6227
:10574000C6B91A46DB6A43F40023D362124A1368CF
:1057500043F080631360FEF75DFA04460E4B1B684E
:1057600013F0006F14D1FEF755FA001B0228F5D98B
:105770000320ABE7012E05D0074AD36A43F4001398
:10578000D362E3E7044AD36A43F48013D362DDE7CC
:1057900000209BE701207047004402580700FFFFEC
:1057A000404B9B6A03F00303032B79D070B5054689
:1057B0000E463C4A136823F080531360FEF72AFA22
:1057C0000446384B1B6813F0005F06D0FEF722FA40
:1057D000031B022BF5D9032070BD324B9A6A22F0CD
:1057E0007C72296842EA01529A626A68013AC2F3FD
:1057F0000802A9680139490289B20A43E9680139F6
:10580000090401F4FE010A4329690139090601F07E
:10581000FE410A431A64DA6A22F4406269690A4363
:10582000DA62DA6A22F40072A9690A43DA62DA6A91
:1058300022F48072DA62596C1B4A0A40E96942EA32
:10584000C1025A64DA6A42F48072DA62C6B91A4650
:10585000DB6A43F48003D362124A136843F0805337
:105860001360FEF7D7F904460E4B1B6813F0005F78
:1058700014D1FEF7CFF9001B0228F5D90320ABE7BE
:10588000012E05D0074AD36A43F08073D362E3E761
:10589000044AD36A43F40003D362DDE700209BE7A8
:1058A00001207047004402580700FFFFF8B5044686
:1058B000036813F0006F30D0436EB3F5001F26D09D
:1058C0000ED8EBB1B3F5801F07D102210830FFF7E6
:1058D000E1FE054645B12E4621E0012635461EE093
:1058E000B3F5401F09D100259F4A136D23F44013DF
:1058F000616E0B431365002611E0012635460EE06C
:10590000994AD36A43F40033D3620025ECE70221BD
:105910002830FFF745FF0546DCE7002635462368BB
:1059200013F4807F27D0A36D042B20D8DFE803F089
:105930000311180808008C4AD36A43F40033D36279
:10594000C5B9894A136D23F00703A16D0B43136595
:1059500011E0002104F10800FFF79CFE0546EFE787
:10596000002104F12800FFF71BFF0546E8E70126A8
:10597000354600E02E46236813F4806F22D0D4F819
:10598000A430B3F5800F3FD00DD8BBB3B3F5001FE3
:1059900006D1002104F10800FFF77CFE054608E06F
:1059A000012635460EE0B3F5000F02D0B3F5200F07
:1059B0001ED185BB6C4A936D23F46003D4F8A41008
:1059C0000B439365236813F4006F39D0D4F8A830E3
:1059D000B3F1007F5AD023D8002B51D0B3F1807F90
:1059E0001BD1002104F10800FFF754FE05461DE01D
:1059F000B3F5C00FDDD001263546E3E75A4AD36A36
:105A000043F40033D362D4E7002104F12800FFF708
:105A1000C7FE0546CDE72E46D4E7012635460FE002
:105A2000B3F1806F02D0B3F1A06F23D1002D34D138
:105A30004D4A936D23F0E063D4F8A8100B439365AF
:105A4000236813F0007F31D0E36C202B42D029D89B
:105A500033B1102B23D1444AD36A43F40033D362C9
:105A6000002D3ED1404AD36C23F03003E16C0B4350
:105A7000D3641BE0B3F1407FD8D001263546DFE781
:105A8000394AD36A43F40033D362CFE7002104F1EB
:105A90002800FFF785FE0546C8E72E46D0E7012619
:105AA000354603E0302BDBD001263546236813F45E
:105AB000805F3BD0E36DB3F5005F2FD016D83BB3CA
:105AC000B3F5805F0FD1002104F10800FFF7E2FD7C
:105AD000054611E0022104F10800FFF7DBFD054651
:105AE000BEE72E46E2E7012635461FE0B3F5405FEC
:105AF00002D0B3F5804F08D1BDB91B4A136D23F412
:105B0000E043E16D0B43136510E0012635460DE0DF
